{
  "_format": "hh-sol-artifact-1",
  "contractName": "Assessment",
  "sourceName": "contracts/Assessment.sol",
  "abi": [
    {
      "inputs": [
        {
          "internalType": "uint256",
          "name": "initBalance",
          "type": "uint256"
        }
      ],
      "stateMutability": "payable",
      "type": "constructor"
    },
    {
      "anonymous": false,
      "inputs": [
        {
          "indexed": false,
          "internalType": "uint256",
          "name": "amount",
          "type": "uint256"
        },
        {
          "indexed": false,
          "internalType": "address",
          "name": "from",
          "type": "address"
        }
      ],
      "name": "Deposit",
      "type": "event"
    },
    {
      "anonymous": false,
      "inputs": [
        {
          "indexed": false,
          "internalType": "address",
          "name": "to",
          "type": "address"
        },
        {
          "indexed": false,
          "internalType": "uint256",
          "name": "amount",
          "type": "uint256"
        }
      ],
      "name": "Transfer",
      "type": "event"
    },
    {
      "anonymous": false,
      "inputs": [
        {
          "indexed": false,
          "internalType": "uint256",
          "name": "amount",
          "type": "uint256"
        },
        {
          "indexed": false,
          "internalType": "address",
          "name": "to",
          "type": "address"
        }
      ],
      "name": "Withdraw",
      "type": "event"
    },
    {
      "inputs": [],
      "name": "balance",
      "outputs": [
        {
          "internalType": "uint256",
          "name": "",
          "type": "uint256"
        }
      ],
      "stateMutability": "view",
      "type": "function"
    },
    {
      "inputs": [
        {
          "internalType": "uint256",
          "name": "_amount",
          "type": "uint256"
        }
      ],
      "name": "deposit",
      "outputs": [],
      "stateMutability": "payable",
      "type": "function"
    },
    {
      "inputs": [],
      "name": "getBalance",
      "outputs": [
        {
          "internalType": "uint256",
          "name": "",
          "type": "uint256"
        }
      ],
      "stateMutability": "view",
      "type": "function"
    },
    {
      "inputs": [],
      "name": "owner",
      "outputs": [
        {
          "internalType": "address payable",
          "name": "",
          "type": "address"
        }
      ],
      "stateMutability": "view",
      "type": "function"
    },
    {
      "inputs": [
        {
          "internalType": "address payable",
          "name": "_to",
          "type": "address"
        },
        {
          "internalType": "uint256",
          "name": "_amount",
          "type": "uint256"
        }
      ],
      "name": "transfer",
      "outputs": [],
      "stateMutability": "nonpayable",
      "type": "function"
    },
    {
      "inputs": [
        {
          "internalType": "uint256",
          "name": "_amount",
          "type": "uint256"
        }
      ],
      "name": "withdraw",
      "outputs": [],
      "stateMutability": "nonpayable",
      "type": "function"
    }
  ],
  "bytecode": "0x6080604052604051610ce0380380610ce0833981810160405281019061002591906100ad565b336000806101000a81548173ffffffffffffffffffffffffffffffffffffffff021916908373ffffffffffffffffffffffffffffffffffffffff16021790555080600181905550506100da565b600080fd5b6000819050919050565b61008a81610077565b811461009557600080fd5b50565b6000815190506100a781610081565b92915050565b6000602082840312156100c3576100c2610072565b5b60006100d184828501610098565b91505092915050565b610bf7806100e96000396000f3fe6080604052600436106100555760003560e01c806312065fe01461005a5780632e1a7d4d146100855780638da5cb5b146100ae578063a9059cbb146100d9578063b69ef8a814610102578063b6b55f251461012d575b600080fd5b34801561006657600080fd5b5061006f610149565b60405161007c9190610649565b60405180910390f35b34801561009157600080fd5b506100ac60048036038101906100a79190610695565b610153565b005b3480156100ba57600080fd5b506100c36102ee565b6040516100d09190610703565b60405180910390f35b3480156100e557600080fd5b5061010060048036038101906100fb919061074a565b610312565b005b34801561010e57600080fd5b506101176104d2565b6040516101249190610649565b60405180910390f35b61014760048036038101906101429190610695565b6104d8565b005b6000600154905090565b60008054906101000a900473ffffffffffffffffffffffffffffffffffffffff1673ffffffffffffffffffffffffffffffffffffffff163373ffffffffffffffffffffffffffffffffffffffff16146101e1576040517f08c379a00000000000000000000000000000000000000000000000000000000081526004016101d89061080d565b60405180910390fd5b6000811180156101f357506001548111155b610232576040517f08c379a000000000000000000000000000000000000000000000000000000000815260040161022990610879565b60405180910390fd5b806001600082825461024491906108c8565b9250508190555060008054906101000a900473ffffffffffffffffffffffffffffffffffffffff1673ffffffffffffffffffffffffffffffffffffffff166108fc829081150290604051600060405180830381858888f193505050501580156102b1573d6000803e3d6000fd5b507f8353ffcac0876ad14e226d9783c04540bfebf13871e868157d2a391cad98e91881336040516102e392919061091d565b60405180910390a150565b60008054906101000a900473ffffffffffffffffffffffffffffffffffffffff1681565b60008054906101000a900473ffffffffffffffffffffffffffffffffffffffff1673ffffffffffffffffffffffffffffffffffffffff163373ffffffffffffffffffffffffffffffffffffffff16146103a0576040517f08c379a00000000000000000000000000000000000000000000000000000000081526004016103979061080d565b60405180910390fd5b6000811180156103b15750600a8111155b6103f0576040517f08c379a00000000000000000000000000000000000000000000000000000000081526004016103e7906109b8565b60405180910390fd5b806001541015610435576040517f08c379a000000000000000000000000000000000000000000000000000000000815260040161042c90610a24565b60405180910390fd5b806001600082825461044791906108c8565b925050819055508173ffffffffffffffffffffffffffffffffffffffff166108fc829081150290604051600060405180830381858888f19350505050158015610494573d6000803e3d6000fd5b507f69ca02dd4edd7bf0a4abb9ed3b7af3f14778db5d61921c7dc7cd545266326de282826040516104c6929190610aa3565b60405180910390a15050565b60015481565b6000600154905060008054906101000a900473ffffffffffffffffffffffffffffffffffffffff1673ffffffffffffffffffffffffffffffffffffffff163373ffffffffffffffffffffffffffffffffffffffff161461056d576040517f08c379a00000000000000000000000000000000000000000000000000000000081526004016105649061080d565b60405180910390fd5b60008211801561057e5750600a8211155b6105bd576040517f08c379a00000000000000000000000000000000000000000000000000000000081526004016105b490610b3e565b60405180910390fd5b81600160008282546105cf9190610b5e565b9250508190555081816105e29190610b5e565b600154146105f3576105f2610b92565b5b7f4bcc17093cdf51079c755de089be5a85e70fa374ec656c194480fbdcda224a53823360405161062492919061091d565b60405180910390a15050565b6000819050919050565b61064381610630565b82525050565b600060208201905061065e600083018461063a565b92915050565b600080fd5b61067281610630565b811461067d57600080fd5b50565b60008135905061068f81610669565b92915050565b6000602082840312156106ab576106aa610664565b5b60006106b984828501610680565b91505092915050565b600073ffffffffffffffffffffffffffffffffffffffff82169050919050565b60006106ed826106c2565b9050919050565b6106fd816106e2565b82525050565b600060208201905061071860008301846106f4565b92915050565b610727816106e2565b811461073257600080fd5b50565b6000813590506107448161071e565b92915050565b6000806040838503121561076157610760610664565b5b600061076f85828601610735565b925050602061078085828601610680565b9150509250929050565b600082825260208201905092915050565b7f596f7520617265206e6f7420746865206f776e6572206f66207468697320616360008201527f636f756e74000000000000000000000000000000000000000000000000000000602082015250565b60006107f760258361078a565b91506108028261079b565b604082019050919050565b60006020820190508181036000830152610826816107ea565b9050919050565b7f496e76616c6964207769746864726177616c20616d6f756e7400000000000000600082015250565b600061086360198361078a565b915061086e8261082d565b602082019050919050565b6000602082019050818103600083015261089281610856565b9050919050565b7f4e487b7100000000000000000000000000000000000000000000000000000000600052601160045260246000fd5b60006108d382610630565b91506108de83610630565b92508282039050818111156108f6576108f5610899565b5b92915050565b6000610907826106c2565b9050919050565b610917816108fc565b82525050565b6000604082019050610932600083018561063a565b61093f602083018461090e565b9392505050565b7f5472616e7366657220616d6f756e74206d757374206265206265747765656e2060008201527f3120616e6420313020746f6b656e730000000000000000000000000000000000602082015250565b60006109a2602f8361078a565b91506109ad82610946565b604082019050919050565b600060208201905081810360008301526109d181610995565b9050919050565b7f496e73756666696369656e742062616c616e6365000000000000000000000000600082015250565b6000610a0e60148361078a565b9150610a19826109d8565b602082019050919050565b60006020820190508181036000830152610a3d81610a01565b9050919050565b6000819050919050565b6000610a69610a64610a5f846106c2565b610a44565b6106c2565b9050919050565b6000610a7b82610a4e565b9050919050565b6000610a8d82610a70565b9050919050565b610a9d81610a82565b82525050565b6000604082019050610ab86000830185610a94565b610ac5602083018461063a565b9392505050565b7f4465706f73697420616d6f756e74206d757374206265206265747765656e203160008201527f20616e6420313020746f6b656e73000000000000000000000000000000000000602082015250565b6000610b28602e8361078a565b9150610b3382610acc565b604082019050919050565b60006020820190508181036000830152610b5781610b1b565b9050919050565b6000610b6982610630565b9150610b7483610630565b9250828201905080821115610b8c57610b8b610899565b5b92915050565b7f4e487b7100000000000000000000000000000000000000000000000000000000600052600160045260246000fdfea2646970667358221220c754d67dce8348f44a60eca9fb3263c345195343cabf7af809a6f7fdc680579164736f6c63430008110033",
  "linkReferences": {},
  "deployedLinkReferences": {}
}